:03000000020851A2
:0C085100787FE4F6D8FD7581200208983D
:0D0F4F007580FF7590FF75A0FF75B0FF2243
:030F9600020F4FF8
:020C9700C1009A
:0E0F400090008EEBF0A3EAF0A3E9F0E4FEFFD0
:010F4E002280
:1006FA009000AAECF0A3EDF0A3EBF0A3EAF0A3E9D3
:10070A00F0EE60030207B8EF14600B0460030207FF
:10071A00B875C8098003E4F5C89000AAE0FEA3E012
:10072A00FBE4C39BFFE49EFE74019400FDE4940085
:10073A00FCE4FB7A01F9F8120C539000B2EFF09046
:10074A0000AAE0FEA3E0FBE4C39BFFE49EFE740163
:10075A009400FDE49400FCE4FB7A01F9F8120C53CE
:10076A009000B3EBF09000ACE0FBA3E0FAA3E04A00
:10077A004B70109000AF74FFF0A3740FF0A3744095
:10078A00F080159000ACE0F9A3E0FAA3E09000AF86
:10079A00C9F0A3EAF0A3E9F09000B2E0F5CBA3E038
:0F07AA00F5CA85CBCD85CACCD2AFD2CAD2AD228B
:10063700900089ECF0A3EDF0A3EBF0A3EAF0A3E9B7
:10064700F0C2CAC2ADEE60030206F9EF14600B04F4
:1006570060030206F975C8098003E4F5C8900089AC
:10066700E0FEA3E0FBE4C39BFFE49EFE740194005D
:10067700FDE49400FCE4FB7A01F9F8120C539000B6
:10068700B2EFF0900089E0FEA3E0FBE4C39BFFE438
:100697009EFE74019400FDE49400FCE4FB7A01F9EA
:1006A700F8120C539000B3EBF090008BE0FBA3E043
:1006B700FAA3E04A4B70109000AF74FFF0A3740FD9
:1006C700F0A37440F0801590008BE0F9A3E0FAA343
:1006D700E09000AFC9F0A3EAF0A3E9F09000B2E020
:1006E700F5CBA3E0F5CA85CBCD85CACCC2CAC2ADCE
:0306F700D2AF225D
:050F8700D2ADD2CA2228
:050F8C00C2CAC2AD2243
:030F9900C2CA22A7
:030F9C00D2CA2294
:03002B00020B7451
:100B7400C0E0C0F0C083C082C0D075D000C000C047
:100B840001C002C003C004C005C006C007C2CF7BB9
:100B9400007A007900C0029000AFA3E0FAA3E0F568
:100BA400828A83D00212022FD007D006D005D00447
:100BB400D003D002D001D000D0D0D082D083D0F0E6
:030BC400D0E0324C
:020FA50000004A
:100C9900480000C0C8846068341D0E602C0008023A
:100CA90006034708050A960B060D0F0E620F76100C
:100CB900F61143121315151818191620FB23E924E8
:0B0CC9002A2500261F2C812D35173B2B
:100DF6007F017E007D507C00EF1FAA0670011E4A0F
:0E0E0600600CED1DAA0470011C4A60EC80F423
:010E140022BB
:100E6F0090008AEEF0A3EFF090008A74FFF5F01275
:0C0E7F00020945F06005120DF680ED221E
:080F6F00C293120C0ED2932272
:100EBD00900090EDF0C293120C0E900090E0FF1296
:050ECD000C0ED293227F
:0B0BC700900090EBF0A3EAF0A3E9F02F
:100BD200C293EF4440FF120C0EE4900094F0900098
:100BE20093E0FFA3E0FEC39F501F900090E0FBA3A1
:100BF200E0FAA3E0F98E8275830012013DFF120C28
:0B0C02000E900094E004F080D5D29327
:010C0D0022C4
:100ED200E4FEC293EF4480FF120C0E7FFF120C0E51
:020EE200D293A9
:010EE40022EB
:100EE500E4FEC293EF44C0FF120C0E7FFF120C0EFE
:020EF500D29396
:010EF70022D8
:0B0A5C0090009EEBF0A3EAF0A3E9F08D
:100A6700E49000A2F0A3F0C293EF44C0FF120C0E73
:100A7700E49000A2F09000A1E0FFA3E0C39F503AEA
:100A8700E4A3F09000A3E0C394147480948050050D
:100A9700E004F080EE7FFF120C0E90009EE0FBA3B7
:100AA700E0FAA3E0F99000A2E0F582758300EF1267
:0C0AB700017C9000A2E004F080BBD29310
:010AC3002210
:100D000090008FEFF0700B7D467F02120EBD7F3595
:100D1000801190008FE06401700C7D467F02120EFE
:070D2000BD7F34120F6F22AA
:050F91007F36020F6F26
:100003007D187F18120EBD7D787F20120EBDE4FD92
:100013007F16120EBD7D8C7F1E120EBD7DA07F1F2D
:08002300120EBD7F3C020F6FBD
:080AC40090008AEFF0A3EDF0B1
:100ACC00E4A3F07F07120ED2EF54FC90008CF09050
:100ADC00008AE0FD7F09120EBD90008BE0602A6455
:100AEC00017007A3E04401F0801F90008BE0FD7CB7
:100AFC000064027007A3E04402F0800DED64034C27
:100B0C00700790008CE04403F090008CE0FD7F07B0
:030B1C00020EBD09
:100E520090008AEEF0A3EFF090008AE0FD7F04128A
:0D0E62000EBD90008AA3E0FD7F05020EBDCD
:080F7700120F917F3B020F6F86
:080F7F00120F917F3A020F6F7F
:0E07B900900089EBF0A3EAF0A3E9F0A3EDF0C5
:1007C700A3E0FF7E007004A3F08010EF64014E7079
:1007D7000A7F09120ED290008EEFF0120F777F0773
:1007E700120ED2EF540390008C600DE004FD7F3FA2
:1007F700120EBD90008E8000E0FD7F3F120EBD906F
:100807000089E0FBA3E0FAA3E0F9A3E0900093F0EE
:100817007F3F120BC7E4FF120D007E002092047F7A
:100827000180027F00EF4E60047F0080027F01EFAE
:1008370070E87E002092047F0180027F00EF4E70F7
:0908470003FF80027F01EF70E95C
:010850002285
:0A0F5C007F3B120EE5EF547FFF22E9
:0B08DD009000A4EBF0A3EAF0A3E9F008
:1008E800E4A3F078A87C007D017BFF7A0F79A5FE50
:1008F8007F021200FE120F5CEF60617F3F120ED282
:100908009000A7EFF07F07120ED2EF540360057F27
:100918003F120ED29000A7E07002FF229000A7E0DD
:1009280014F09000A4E0FBA3E0FAA3E0F9A3E090A0
:1009380000A1F07F3F120A5C7B017A0079A8900041
:10094800A17402F07F3F120A5C120F7F9000A9E0A9
:0E09580030E7069000A7E0FF227F00227F001C
:01096600226E
:100F1E00D293C293D2937F017E00120E6F7F300266
:020F2E000F6F43
:100F3000759104E4F592759110F592D292C29422C3
:1009F100E4900089F0120F30120F1EE4900089F08C
:100A0100900089E0C39416748094805028E0FE25FC
:100A1100E02408F582E43400F583E0FFEE25E024CC
:100A210009F582E43400F583E0FD120EBD900089E2
:100A3100E004F080CB7D037F05120AC47F997E8795
:100A4100120E527D727F13120EBD7B017A00790066
:0B0A51009000937408F07F3E020BC77A
:100E3400E4F591759280F591759220F5917592087B
:0E0E4400759140F592C297D295D296D2932224
:100C0E00E4FEFDC297EEC39408748094805033EFD7
:100C1E00548064807004D2958002C295EF25E0FF67
:100C2E00D29700ED25E0FD7A002096047B0080022D
:100C3E007B01EB64014A7004ED4401FDC297000E86
:040C4E0080C3AF05AB
:010C5200227F
:100B1F00900095EBF0A3EAF0A3E9F0C29390009B4D
:100B2F0074FFF5F012020945F06037900098E0FB72
:100B3F00A3E0FAA3E0F9120124FF120C0E90009526
:100B4F00E0FBA3E0FAA3E0F9EF12016A900096E44C
:100B5F0075F0011201F3900099E475F0011201F3A1
:050B6F0080BBD29322BF
:100E15007F017E007D507C00EF1FAA0670011E4AEF
:0E0E2500600CED1DAA0470011C4A60EC80F404
:010E3300229C
:100E8B00900089EEF0A3EFF090008974FFF5F0125B
:0C0E9B00020945F06005120E1580ED22E2
:090F660075B104E4F5B2D2B22227
:100EF80020B20D7F2D7E00120E8B20B2037F0122BF
:030F08007F002245
:10032B00900089EBF0A3EAF0A3E9F0E4A3F09000CE
:10033B0034E06401704090003BE024FFF090003A01
:10034B00E034FFF0E07002A3E0702B900038E0FF88
:10035B00A3E0A3CFF0A3EFF090003FE0FBA3E0FA04
:10036B00A3E0F9C00290003CA3E0FAA3E0F5828A77
:10037B0083D00212022F900035E064017040900090
:10038B0045E024FFF0900044E034FFF0E07002A35E
:10039B00E0702B900042E0FFA3E0A3CFF0A3EFF0BF
:1003AB00900049E0FBA3E0FAA3E0F9C002900046FD
:1003BB00A3E0FAA3E0F5828A83D00212022F900009
:1003CB0036E06401704090004FE024FFF090004E47
:1003DB00E034FFF0E07002A3E0702B90004CE0FFE4
:1003EB00A3E0A3CFF0A3EFF0900053E0FBA3E0FA60
:1003FB00A3E0F9C002900050A3E0FAA3E0F5828AD3
:10040B0083D00212022F900037E0640170409000FD
:10041B0059E024FFF0900058E034FFF0E07002A3A5
:10042B00E0702B900056E0FFA3E0A3CFF0A3EFF01A
:10043B0090005DE0FBA3E0FAA3E0F9C00290005A44
:10044B00A3E0FAA3E0F5828A83D00212022FE4FE26
:01045B00FFA1
:01045C00227D
:100D96007E007F2C7D007B017A0079341202317B44
:100DA600FF7A03792B7D107C277F017E00020637B0
:030F9F00020F87B7
:030FA200020F8CAF
:10056F00900089EEF0A3EFF0A3EBF0A3EAF0A3E97C
:01057F00F08B
:10058000120D27900091EFF03395E0C364809480C2
:1005900050057EFF7FFF22900089E0FEA3E0FF7CF4
:1005A000007D0A12019E900091E0FD3395E0FC90E1
:1005B000003875F00AED12021FEC75F00AA42583CD
:1005C000F583EEF0A3EFF090003A75F00AED120219
:1005D0001FEC75F00AA42583F583EEF0A3EFF090ED
:1005E000008BE0FBA3E0FAA3E0F990003C75F00A71
:1005F000ED12021FEC75F00AA42583F583EBF0A33E
:10060000EAF0A3E9F090008EE0FBA3E0FAA3E0F9A2
:1006100090003F75F00AED12021FEC75F00AA42558
:1006200083F583EBF0A3EAF0A3E9F0900091E0FFFB
:06063000120D4DE4FEFF77
:0106360022A1
:10045D009000B4EBF0A3EAF0A3E9F0900034E0646F
:10046D000170379000B4E0FBA3E0FAA3E0F9C003FC
:10047D00C002C00190003CE0FBA3E0FAA3E0F9D07C
:10048D0082D083D0E06B7008E965827003EA6583E2
:10049D007008FF120CD5E4FEFF22900035E06401D8
:1004AD0070399000B4E0FBA3E0FAA3E0F9C003C0FB
:1004BD0002C001900046E0FBA3E0FAA3E0F9D08270
:1004CD00D083D0E06B7008E965827003EA658370B4
:1004DD000A7F01120CD57E007F0122900036E06468
:1004ED000170399000B4E0FBA3E0FAA3E0F9C0037A
:1004FD00C002C001900050E0FBA3E0FAA3E0F9D0E8
:10050D0082D083D0E06B7008E965827003EA658361
:10051D00700A7F02120CD57E007F0222900037E018
:10052D00640170399000B4E0FBA3E0FAA3E0F9C0D8
:10053D0003C002C00190005AE0FBA3E0FAA3E0F96A
:10054D00D082D083D0E06B7008E965827003EA65D4
:10055D0083700A7F03120CD57E007F03227EFF7FFE
:02056D00FF226B
:100D2700900034E07002FF22900035E070037F01ED
:100D370022900036E070037F0222900037E07003B4
:050D47007F03227FFF85
:010D4C002284
:100D4D00EF14600F146011146013240370159000DC
:100D5D0034800D9000358008900036800390003768
:060D6D007401F07F00227A
:100CD500EF1460111460151460192403701AE49060
:100CE5000034F08013E4900035F0800CE490003679
:0B0CF500F08005E4900037F07F002243
:100EA7006C65645F6F66006C65645F6F6E00000061
:060EB70000000000000035
:100DB600900089EBF0A3EAF0A3E9F09000B7E070A9
:0F0DC6000604F0E4F59022E49000B7F07590FF7A
:010DD50022FB
:100D7300900089EBF0A3EAF0A3E9F09000B8E070EB
:100D83000704F075A0FF8007E49000B8F0F5A0E435
:020D9300FEFF61
:010D9500223B
:10096700E4900080F078817C007D017BFF7A0E792E
:10097700B5FE7F081200FE120F96120D9690008E9C
:10098700E4F0A3F0A3F07BFF7A0D79B67FE87E034E
:1009970012056F90008EE4F0A3F0A3F07BFF7A0DB1
:1009A70079737FE87E0312056F120E341209F11274
:1009B7000EF8EF640170F8900080E0F4F070157B9A
:1009C700FF7A0E79A790008D04F07D061207B91201
:1009D7000FA280DB7BFF7A0E79AE90008D7401F059
:0A09E7007D061207B9120F9F80C5AC
:100DD6004D4F44453A485F50415353202020202030
:100DE60046483A30303030302E302047413A3030A5
:100F0B0078607C007D017BFF7A0D79D67E007F2097
:030F1B000200FED3
:10085D00020967E493A3F8E493A34003F68001F241
:10086D0008DFF48029E493A3F85407240CC8C3339C
:10087D00C4540F4420C8834004F456800146F6DF6B
:10088D00E4800B0102040810204080900C97E47E58
:10089D00019360BCA3FF543F30E509541FFEE49360
:1008AD00A360010ECF54C025E060A840B8E493A327
:1008BD00FAE493A3F8E493A3C8C582C8CAC583CA52
:1008CD00F0A3C8C582C8CAC583CADFE9DEE780BE0A
:010CD400001F
:10002E00E709F608DFFA8046E709F208DFFA803EB4
:10003E0088828C83E709F0A3DFFA8032E309F608A1
:10004E00DFFA8078E309F208DFFA807088828C8309
:10005E00E309F0A3DFFA806489828A83E0A3F608BD
:10006E00DFFA805889828A83E0A3F208DFFA804C97
:10007E0080D280FA80C680D4806980F2803380106E
:10008E0080A680EA809A80A880DA80E280CA8033D7
:10009E0089828A83ECFAE493A3C8C582C8CCC5834F
:1000AE00CCF0A3C8C582C8CCC583CCDFE9DEE7801F
:1000BE000D89828A83E493A3F608DFF9ECFAA9F09E
:1000CE00EDFB2289828A83ECFAE0A3C8C582C8CCF4
:1000DE00C583CCF0A3C8C582C8CCC583CCDFEADE0D
:1000EE00E880DB89828A83E493A3F208DFF980CC6F
:1000FE0088F0EF60010E4E60C388F0ED2402B40468
:10010E000050B9F582EB2402B4040050AF2323450E
:06011E00822390007E73B5
:10012400BB010689828A83E0225002E722BBFE02D9
:09013400E32289828A83E493220C
:10013D00BB010CE58229F582E5833AF583E0225077
:10014D0006E92582F8E622BBFE06E92582F8E222C1
:0D015D00E58229F582E5833AF583E49322DB
:10016A00BB010689828A83F0225002F722BBFE0174
:02017A00F3226E
:10017C00F8BB010DE58229F582E5833AF583E8F0B9
:10018C00225006E92582C8F622BBFE05E92582C865
:02019C00F2224D
:10019E00BC000BBE0029EF8DF084FFADF022E4CC45
:1001AE00F875F008EF2FFFEE33FEEC33FCEE9DEC0E
:1001BE00984005FCEE9DFE0FD5F0E9E4CEFD22ED54
:1001CE00F8F5F0EE8420D21CFEADF075F008EF2F9E
:1001DE00FFED33FD4007985006D5F0F222C398FD8F
:0501EE000FD5F0EA222C
:1001F300C5F0F8A3E028F0C5F0F8E5821582700297
:060203001583E038F02233
:10020900A3F8E0C5F025F0F0E582158270021583A8
:06021900E0C838F0E82205
:100C5300C2D5E830E70FB2D5E4C39BFBE49AFAE4CC
:100C630099F9E498F8EC30E717B2D5120C8912021F
:100C730099E4C39BFBE49AFAE499F9E498F88003B6
:100C830012029930D50DE4C39FFFE49EFEE49DFD5F
:040C9300E49CFC22BF
:0C021F00A42582F582E5F03583F58322EA
:06022B008A838982E4735E
:10023100EF4E6012EF60010EEDBB010B89828A83E4
:10024100F0A3DFFCDEFA2289F05007F709DFFCA9F1
:0C025100F022BBFEFCF309DFFCA9F02248
:10025D0075F008758200EF2FFFEE33FECD33CDCC58
:10026D0033CCC58233C5829BED9AEC99E5829840DB
:10027D000CF582EE9BFEED9AFDEC99FC0FD5F0D6B8
:10028D00E4CEFBE4CDFAE4CCF9A88222B800C1B9E2
:10029D000059BA002DEC8BF084CFCECDFCE5F0CB20
:1002AD00F97818EF2FFFEE33FEED33FDEC33FCEB59
:1002BD0033FB10D703994004EB99FB0FD8E5E4F914
:1002CD00FA227818EF2FFFEE33FEED33FDEC33FC01
:1002DD00C933C910D7059BE99A4007EC9BFCE99AF5
:1002ED00F90FD8E0E4C9FAE4CCFB2275F010EF2F3A
:1002FD00FFEE33FEED33FDCC33CCC833C810D7073A
:10030D009BEC9AE899400AED9BFDEC9AFCE899F874
:0E031D000FD5F0DAE4CDFBE4CCFAE4C8F92207
:00000001FF
