:03000000020851A2
:0C085100787FE4F6D8FD7581200208983D
:0D0F9C007580FF7590FF75A0FF75B0FF22F6
:030FE300020F9C5E
:020C8500C100AC
:0E0F8D0090008EEBF0A3EAF0A3E9F0E4FEFF83
:010F9B002233
:1006FA009000AAECF0A3EDF0A3EBF0A3EAF0A3E9D3
:10070A00F0EE60030207B8EF14600B0460030207FF
:10071A00B875C8098003E4F5C89000AAE0FEA3E012
:10072A00FBE4C39BFFE49EFE74019400FDE4940085
:10073A00FCE4FB7A01F9F8120C419000B2EFF09058
:10074A0000AAE0FEA3E0FBE4C39BFFE49EFE740163
:10075A009400FDE49400FCE4FB7A01F9F8120C41E0
:10076A009000B3EBF09000ACE0FBA3E0FAA3E04A00
:10077A004B70109000AF74FFF0A3740FF0A3748D48
:10078A00F080159000ACE0F9A3E0FAA3E09000AF86
:10079A00C9F0A3EAF0A3E9F09000B2E0F5CBA3E038
:0F07AA00F5CA85CBCD85CACCD2AFD2CAD2AD228B
:10063700900089ECF0A3EDF0A3EBF0A3EAF0A3E9B7
:10064700F0C2CAC2ADEE60030206F9EF14600B04F4
:1006570060030206F975C8098003E4F5C8900089AC
:10066700E0FEA3E0FBE4C39BFFE49EFE740194005D
:10067700FDE49400FCE4FB7A01F9F8120C419000C8
:10068700B2EFF0900089E0FEA3E0FBE4C39BFFE438
:100697009EFE74019400FDE49400FCE4FB7A01F9EA
:1006A700F8120C419000B3EBF090008BE0FBA3E055
:1006B700FAA3E04A4B70109000AF74FFF0A3740FD9
:1006C700F0A3748DF0801590008BE0F9A3E0FAA3F6
:1006D700E09000AFC9F0A3EAF0A3E9F09000B2E020
:1006E700F5CBA3E0F5CA85CBCD85CACCC2CAC2ADCE
:0306F700D2AF225D
:050FD400D2ADD2CA22DB
:050FD900C2CAC2AD22F6
:030FE600C2CA225A
:030FE900D2CA2247
:03002B00020B6263
:100B6200C0E0C0F0C083C082C0D075D000C000C059
:100B720001C002C003C004C005C006C007C2CF7BCB
:100B8200007A007900C0029000AFA3E0FAA3E0F57A
:100B9200828A83D00212022FD007D006D005D00459
:100BA200D003D002D001D000D0D0D082D083D0F0F8
:030BB200D0E0325E
:020FF2000000FD
:100C8700480000C0C8846068341D0E602C0008024C
:100C970006034708050A960B060D0F0E620F76101E
:100CA700F61143121315151818191620FB23E924FA
:0B0CB7002A2500261F2C812D35173B3D
:100E0B007F017E007D507C00EF1FAA0670011E4AF9
:0E0E1B00600CED1DAA0470011C4A60EC80F40E
:010E290022A6
:100EA20090008AEEF0A3EFF090008A74FFF5F01242
:0C0EB200020945F06005120E0B80ED22D5
:080FBC00C293120BFCD2932238
:100F1D00900090EDF0C293120BFC900090E0FF1248
:050F2D000BFCD2932231
:0B0BB500900090EBF0A3EAF0A3E9F041
:100BC000C293EF4440FF120BFCE4900094F09000BD
:100BD00093E0FFA3E0FEC39F501F900090E0FBA3B3
:100BE000E0FAA3E0F98E8275830012013DFF120B3B
:0B0BF000FC900094E004F080D5D2934C
:010BFB0022D7
:100F3200E4FEC293EF4480FF120BFC7FFF120BFC16
:020F4200D29348
:010F4400228A
:100F4500E4FEC293EF44C0FF120BFC7FFF120BFCC3
:020F5500D29335
:010F57002277
:0B0A4A0090009EEBF0A3EAF0A3E9F09F
:100A5500E49000A2F0A3F0C293EF44C0FF120BFC98
:100A6500E49000A2F09000A1E0FFA3E0C39F503AFC
:100A7500E4A3F09000A3E0C394147480948050051F
:100A8500E004F080EE7FFF120BFC90009EE0FBA3DC
:100A9500E0FAA3E0F99000A2E0F582758300EF1279
:0C0AA500017C9000A2E004F080BBD29322
:010AB1002222
:100CEE0090008FEFF0700B7D467F02120F1D7F3547
:100CFE00801190008FE06401700C7D467F02120F10
:070D0E001D7F34120FBC220F
:050FDE007F36020FBC8C
:100003007D187F18120F1D7D787F20120F1DE4FDD0
:100013007F16120F1D7D8C7F1E120F1D7DA07F1F6B
:08002300120F1D7F3C020FBC0F
:080AB20090008AEFF0A3EDF0C3
:100ABA00E4A3F07F07120F32EF54FC90008CF09001
:100ACA00008AE0FD7F09120F1D90008BE0602A6406
:100ADA00017007A3E04401F0801F90008BE0FD7CC9
:100AEA000064027007A3E04402F0800DED64034C39
:100AFA00700790008CE04403F090008CE0FD7F07C3
:030B0A00020F1DBA
:100E850090008AEEF0A3EFF090008AE0FD7F041257
:0D0E95000F1D90008AA3E0FD7F05020F1DD8
:080FC400120FDE7F3B020FBC9F
:080FCC00120FDE7F3A020FBC98
:0E07B900900089EBF0A3EAF0A3E9F0A3EDF0C5
:1007C700A3E0FF7E007004A3F08010EF64014E7079
:1007D7000A7F09120F3290008EEFF0120FC47F07C5
:1007E700120F32EF540390008C600DE004FD7F3F41
:1007F700120F1D90008E8000E0FD7F3F120F1D90AD
:100807000089E0FBA3E0FAA3E0F9A3E0900093F0EE
:100817007F3F120BB5E4FF120CEE7E002092047F9F
:100827000180027F00EF4E60047F0080027F01EFAE
:1008370070E87E002092047F0180027F00EF4E70F7
:0908470003FF80027F01EF70E95C
:010850002285
:0A0FA9007F3B120F45EF547FFF223B
:0B08DD009000A4EBF0A3EAF0A3E9F008
:1008E800E4A3F078A87C007D017BFF7A0F79F2FE03
:1008F8007F021200FE120FA9EF60617F3F120F32D4
:100908009000A7EFF07F07120F32EF540360057FC6
:100918003F120F329000A7E07002FF229000A7E07C
:1009280014F09000A4E0FBA3E0FAA3E0F9A3E090A0
:1009380000A1F07F3F120A4A7B017A0079A8900053
:10094800A17402F07F3F120A4A120FCC9000A9E06E
:0E09580030E7069000A7E0FF227F00227F001C
:01096600226E
:100F6B00D293C293D2937F017E00120EA27F3002E6
:020F7B000FBCA9
:100F7D00759104E4F592759110F592D292C2942276
:1009DF00E4900089F0120F7D120F6BE4900089F004
:1009EF00900089E0C39416748094805028E0FE250F
:1009FF00E02408F582E43400F583E0FFEE25E024DF
:100A0F0009F582E43400F583E0FD120F1D90008993
:100A1F00E004F080CB7D037F05120AB27F997E87B9
:100A2F00120E857D727F13120F1D7B017A007900E4
:0B0A3F009000937408F07F3E020BB59E
:100E4900E4F591759280F591759220F59175920866
:0E0E5900759140F592C297D295D296D293220F
:100BFC00E4FEFDC297EEC39408748094805033EFEA
:100C0C00548064807004D2958002C295EF25E0FF79
:100C1C00D29700ED25E0FD7A002096047B0080023F
:100C2C007B01EB64014A7004ED4401FDC297000E98
:040C3C0080C3AF05BD
:010C40002291
:100B0D00900095EBF0A3EAF0A3E9F0C29390009B5F
:100B1D0074FFF5F012020945F06037900098E0FB84
:100B2D00A3E0FAA3E0F9120124FF120BFC9000954B
:100B3D00E0FBA3E0FAA3E0F9EF12016A900096E45E
:100B4D0075F0011201F3900099E475F0011201F3B3
:050B5D0080BBD29322D1
:100E2A007F017E007D507C00EF1FAA0670011E4ADA
:0E0E3A00600CED1DAA0470011C4A60EC80F4EF
:010E48002287
:100EBE00900089EEF0A3EFF090008974FFF5F01228
:0C0ECE00020945F06005120E2A80ED229A
:090FB30075B102E4F5B2D2B122DD
:100EF10020B1107F2D7E00120EBE20B10630B1FD53
:060F01007F01227F0022A7
:100D8800D3EF9400EE94004019EF1FAA0670011EDD
:100D98004A600FE4FDEDC3946E7480948050EA0DB0
:020DA80080F3D6
:010DAA002226
:100EDA00D3EF9400EE9400400DEF1FAC0670011E94
:070EEA004C60030080F322BD
:100D1500D3EF9400EE9400401DEF1FAA0670011E4C
:100D25004A6013E4FCFDC3ED944CEC940450EA0DC9
:060D3500BD00010C80F07E
:010D3B002295
:100E6700D3EF9400EE94004014EF1FAC0670011E00
:0E0E77004C600A000000000000000080EC2229
:10032B00900089EBF0A3EAF0A3E9F0E4A3F09000CE
:10033B0034E06401704090003BE024FFF090003A01
:10034B00E034FFF0E07002A3E0702B900038E0FF88
:10035B00A3E0A3CFF0A3EFF090003FE0FBA3E0FA04
:10036B00A3E0F9C00290003CA3E0FAA3E0F5828A77
:10037B0083D00212022F900035E064017040900090
:10038B0045E024FFF0900044E034FFF0E07002A35E
:10039B00E0702B900042E0FFA3E0A3CFF0A3EFF0BF
:1003AB00900049E0FBA3E0FAA3E0F9C002900046FD
:1003BB00A3E0FAA3E0F5828A83D00212022F900009
:1003CB0036E06401704090004FE024FFF090004E47
:1003DB00E034FFF0E07002A3E0702B90004CE0FFE4
:1003EB00A3E0A3CFF0A3EFF0900053E0FBA3E0FA60
:1003FB00A3E0F9C002900050A3E0FAA3E0F5828AD3
:10040B0083D00212022F900037E0640170409000FD
:10041B0059E024FFF0900058E034FFF0E07002A3A5
:10042B00E0702B900056E0FFA3E0A3CFF0A3EFF01A
:10043B0090005DE0FBA3E0FAA3E0F9C00290005A44
:10044B00A3E0FAA3E0F5828A83D00212022FE4FE26
:01045B00FFA1
:01045C00227D
:100DAB007E007F2C7D007B017A0079341202317B2F
:100DBB00FF7A03792B7D107C277F017E000206379B
:030FEC00020FD41D
:030FEF00020FD915
:10056F00900089EEF0A3EFF0A3EBF0A3EAF0A3E97C
:01057F00F08B
:10058000120D3C900091EFF03395E0C364809480AD
:1005900050057EFF7FFF22900089E0FEA3E0FF7CF4
:1005A000007D0A12019E900091E0FD3395E0FC90E1
:1005B000003875F00AED12021FEC75F00AA42583CD
:1005C000F583EEF0A3EFF090003A75F00AED120219
:1005D0001FEC75F00AA42583F583EEF0A3EFF090ED
:1005E000008BE0FBA3E0FAA3E0F990003C75F00A71
:1005F000ED12021FEC75F00AA42583F583EBF0A33E
:10060000EAF0A3E9F090008EE0FBA3E0FAA3E0F9A2
:1006100090003F75F00AED12021FEC75F00AA42558
:1006200083F583EBF0A3EAF0A3E9F0900091E0FFFB
:06063000120D62E4FEFF62
:0106360022A1
:10045D009000B4EBF0A3EAF0A3E9F0900034E0646F
:10046D000170379000B4E0FBA3E0FAA3E0F9C003FC
:10047D00C002C00190003CE0FBA3E0FAA3E0F9D07C
:10048D0082D083D0E06B7008E965827003EA6583E2
:10049D007008FF120CC3E4FEFF22900035E06401EA
:1004AD0070399000B4E0FBA3E0FAA3E0F9C003C0FB
:1004BD0002C001900046E0FBA3E0FAA3E0F9D08270
:1004CD00D083D0E06B7008E965827003EA658370B4
:1004DD000A7F01120CC37E007F0122900036E0647A
:1004ED000170399000B4E0FBA3E0FAA3E0F9C0037A
:1004FD00C002C001900050E0FBA3E0FAA3E0F9D0E8
:10050D0082D083D0E06B7008E965827003EA658361
:10051D00700A7F02120CC37E007F0222900037E02A
:10052D00640170399000B4E0FBA3E0FAA3E0F9C0D8
:10053D0003C002C00190005AE0FBA3E0FAA3E0F96A
:10054D00D082D083D0E06B7008E965827003EA65D4
:10055D0083700A7F03120CC37E007F03227EFF7F10
:02056D00FF226B
:100D3C00900034E07002FF22900035E070037F01D8
:100D4C0022900036E070037F0222900037E070039F
:050D5C007F03227FFF70
:010D6100226F
:100D6200EF14600F146011146013240370159000C7
:100D720034800D9000358008900036800390003753
:060D82007401F07F002265
:100CC300EF1460111460151460192403701AE49072
:100CD3000034F08013E4900035F0800CE49000368B
:0B0CE300F08005E4900037F07F002255
:100F07006C65645F6F66006C65645F6F6E00000000
:060F1700000000000000D4
:100DCB00900089EBF0A3EAF0A3E9F09000B7E07094
:0F0DDB000604F0E4F5A022E49000B7F075A0FF45
:010DEA0022E6
:10096700E4900080F078817C007D017BFF7A0F792D
:1009770015FE7F081200FE120FE3120DAB90008EDA
:10098700E4F0A3F0A3F07BFF7A0D79CB7FE87E0339
:1009970012056F120FB3120E491209DF120EF1EF93
:1009A700640170F8900080E0F4F07016120FEF7B8E
:1009B700FF7A0F790790008D7401F07D061207B951
:1009C70080DA7BFF7A0F790E90008D7401F07D0637
:0809D7001207B9120FEC80C4F5
:100DEB004D4F44453A485F5041535320202020201B
:100DFB0046483A30303030302E302047413A303090
:100F580078607C007D017BFF7A0D79EB7E007F2035
:030F68000200FE86
:10085D00020967E493A3F8E493A34003F68001F241
:10086D0008DFF48029E493A3F85407240CC8C3339C
:10087D00C4540F4420C8834004F456800146F6DF6B
:10088D00E4800B0102040810204080900C85E47E6A
:10089D00019360BCA3FF543F30E509541FFEE49360
:1008AD00A360010ECF54C025E060A840B8E493A327
:1008BD00FAE493A3F8E493A3C8C582C8CAC583CA52
:1008CD00F0A3C8C582C8CAC583CADFE9DEE780BE0A
:010CC2000031
:10002E00E709F608DFFA8046E709F208DFFA803EB4
:10003E0088828C83E709F0A3DFFA8032E309F608A1
:10004E00DFFA8078E309F208DFFA807088828C8309
:10005E00E309F0A3DFFA806489828A83E0A3F608BD
:10006E00DFFA805889828A83E0A3F208DFFA804C97
:10007E0080D280FA80C680D4806980F2803380106E
:10008E0080A680EA809A80A880DA80E280CA8033D7
:10009E0089828A83ECFAE493A3C8C582C8CCC5834F
:1000AE00CCF0A3C8C582C8CCC583CCDFE9DEE7801F
:1000BE000D89828A83E493A3F608DFF9ECFAA9F09E
:1000CE00EDFB2289828A83ECFAE0A3C8C582C8CCF4
:1000DE00C583CCF0A3C8C582C8CCC583CCDFEADE0D
:1000EE00E880DB89828A83E493A3F208DFF980CC6F
:1000FE0088F0EF60010E4E60C388F0ED2402B40468
:10010E000050B9F582EB2402B4040050AF2323450E
:06011E00822390007E73B5
:10012400BB010689828A83E0225002E722BBFE02D9
:09013400E32289828A83E493220C
:10013D00BB010CE58229F582E5833AF583E0225077
:10014D0006E92582F8E622BBFE06E92582F8E222C1
:0D015D00E58229F582E5833AF583E49322DB
:10016A00BB010689828A83F0225002F722BBFE0174
:02017A00F3226E
:10017C00F8BB010DE58229F582E5833AF583E8F0B9
:10018C00225006E92582C8F622BBFE05E92582C865
:02019C00F2224D
:10019E00BC000BBE0029EF8DF084FFADF022E4CC45
:1001AE00F875F008EF2FFFEE33FEEC33FCEE9DEC0E
:1001BE00984005FCEE9DFE0FD5F0E9E4CEFD22ED54
:1001CE00F8F5F0EE8420D21CFEADF075F008EF2F9E
:1001DE00FFED33FD4007985006D5F0F222C398FD8F
:0501EE000FD5F0EA222C
:1001F300C5F0F8A3E028F0C5F0F8E5821582700297
:060203001583E038F02233
:10020900A3F8E0C5F025F0F0E582158270021583A8
:06021900E0C838F0E82205
:100C4100C2D5E830E70FB2D5E4C39BFBE49AFAE4DE
:100C510099F9E498F8EC30E717B2D5120C77120243
:100C610099E4C39BFBE49AFAE499F9E498F88003C8
:100C710012029930D50DE4C39FFFE49EFEE49DFD71
:040C8100E49CFC22D1
:0C021F00A42582F582E5F03583F58322EA
:06022B008A838982E4735E
:10023100EF4E6012EF60010EEDBB010B89828A83E4
:10024100F0A3DFFCDEFA2289F05007F709DFFCA9F1
:0C025100F022BBFEFCF309DFFCA9F02248
:10025D0075F008758200EF2FFFEE33FECD33CDCC58
:10026D0033CCC58233C5829BED9AEC99E5829840DB
:10027D000CF582EE9BFEED9AFDEC99FC0FD5F0D6B8
:10028D00E4CEFBE4CDFAE4CCF9A88222B800C1B9E2
:10029D000059BA002DEC8BF084CFCECDFCE5F0CB20
:1002AD00F97818EF2FFFEE33FEED33FDEC33FCEB59
:1002BD0033FB10D703994004EB99FB0FD8E5E4F914
:1002CD00FA227818EF2FFFEE33FEED33FDEC33FC01
:1002DD00C933C910D7059BE99A4007EC9BFCE99AF5
:1002ED00F90FD8E0E4C9FAE4CCFB2275F010EF2F3A
:1002FD00FFEE33FEED33FDCC33CCC833C810D7073A
:10030D009BEC9AE899400AED9BFDEC9AFCE899F874
:0E031D000FD5F0DAE4CDFBE4CCFAE4C8F92207
:00000001FF
