:10170D00410077004100780041007A0041007900E6
:1016D90090007BEBF0A3EAF0A3E9F0900078E070CA
:0E16E90005F5A004F02275A0FFE4900078F053
:0116F70022D0
:10157F0090007EEBF0A3EAF0A3E9F0900077E07023
:10158F0006F58004F080087580FFE4900077F090F6
:0F159F000079E0C3941E748094805003E004F040
:0115AE00221A
:10169700900081EBF0A3EAF0A3E9F090007AE00470
:1016A700F0E0C394647480948040056390FFE4F095
:0116B7002210
:10172000900064EBF0A3EAF0A3E9F07D327F0302BE
:02173000114264
:100F98007B017A0079609000687407F0A3740AF006
:100FA8007D03120BB47B017A0079619000687406A6
:100FB800F0A37414F07D03120BB47B017A007962FC
:100FC8009000687405F0A3741EF07D03120BB47BC7
:100FD800017A0079639000687404F0A37428F07DA6
:100FE80003120BB4900060E0FF121540900061E01E
:100FF800FF121540900062E0FF121540900063E078
:10100800FF121540900069E4F0A3F0A3F07BFF7A8B
:101018001779207F307E75120CAB7BFF7A17792009
:0510280012048380FEAC
:10035100900060EBF0A3EAF0A3E9F0E4A3F09000D1
:1003610000E064027040900007E024FFF090000676
:10037100E034FFF0E07002A3E0702B900004E0FF96
:10038100A3E0A3CFF0A3EFF090000BE0FBA3E0FA12
:10039100A3E0F9C002900008A3E0FAA3E0F5828A85
:1003A10083D002120255900001E064027040900077
:1003B10011E024FFF0900010E034FFF0E07002A3A0
:1003C100E0702B90000EE0FFA3E0A3CFF0A3EFF0CD
:1003D100900015E0FBA3E0FAA3E0F9C0029000123F
:1003E100A3E0FAA3E0F5828A83D0021202559000BD
:1003F10002E06402704090001BE024FFF090001ABC
:10040100E034FFF0E07002A3E0702B900018E0FFF1
:10041100A3E0A3CFF0A3EFF090001FE0FBA3E0FA6D
:10042100A3E0F9C00290001CA3E0FAA3E0F5828AE0
:1004310083D002120255900003E0640270409000E4
:1004410025E024FFF0900024E034FFF0E07002A3E7
:10045100E0702B900022E0FFA3E0A3CFF0A3EFF028
:10046100900029E0FBA3E0FAA3E0F9C00290002686
:10047100A3E0FAA3E0F5828A83D002120255E4FEDA
:01048100FF7B
:010482002257
:1016B8007E007F2C7D007B017A0079001202579012
:1016C8000063E4F0A3F0A3F07BFF7A0379510211E1
:0116D800BB56
:091766007BFF7A03795102059022
:09176F007BFF7A0379510207A601
:100CAB00900064EEF0A3EFF0A3EBF0A3EAF0A3E95E
:010CBB00F048
:100CBC0012000390006CEFF03395E0C364809480D5
:100CCC0050037FFF22900064E0FEA3E0FF7C007DD8
:100CDC000A1201F090006CE0FD3395E0FC900004EA
:100CEC0075F00AED120245EC75F00AA42583F58324
:100CFC00EEF0A3EFF090000675F00AED120245EC51
:100D0C0075F00AA42583F583EEF0A3EFF09000664E
:100D1C00E0FBA3E0FAA3E0F990000875F00AED12ED
:100D2C000245EC75F00AA42583F583EBF0A3EAF0F9
:100D3C00A3E9F0900069E0FBA3E0FAA3E0F99000CE
:100D4C000B75F00AED120245EC75F00AA42583F53B
:100D5C0083EBF0A3EAF0A3E9F090006CE0FF12152E
:030D6C00D97F002C
:010D6F002261
:1009B200900084EBF0A3EAF0A3E9F0900000E0607D
:1009C20036900084E0FBA3E0FAA3E0F9C003C00282
:1009D200C001900008E0FBA3E0FAA3E0F9D082D0C6
:1009E20083D0E06B7008E965827003EA6583700763
:1009F200FF1213E57F0022900001E060379000842F
:100A0200E0FBA3E0FAA3E0F9C003C002C00190003A
:100A120012E0FBA3E0FAA3E0F9D082D083D0E06B2E
:100A22007008E965827003EA658370087F0112131A
:100A3200E57F0122900002E06037900084E0FBA392
:100A4200E0FAA3E0F9C003C002C00190001CE0FB81
:100A5200A3E0FAA3E0F9D082D083D0E06B7008E97A
:100A620065827003EA658370087F021213E57F02D4
:100A720022900003E06037900084E0FBA3E0FAA339
:100A8200E0F9C003C002C001900026E0FBA3E0FA37
:100A9200A3E0F9D082D083D0E06B7008E965827060
:100AA20003EA658370087F031213E57F03227FFF49
:010AB2002221
:10069D00900087EBF0A3EAF0A3E9F0900000E0648E
:1006AD00027037900087E0FBA3E0FAA3E0F9C003E6
:1006BD00C002C001900008E0FBA3E0FAA3E0F9D06E
:1006CD0082D083D0E06B7008E965827003EA6583A0
:1006DD00700890000004F07F0022900001E0640299
:1006ED007036900087E0FBA3E0FAA3E0F9C003C0E9
:1006FD0002C001900012E0FBA3E0FAA3E0F9D08262
:10070D00D083D0E06B7008E965827003EA65837071
:10071D000790000104F0FF22900002E064027037A0
:10072D00900087E0FBA3E0FAA3E0F9C003C002C08C
:10073D000190001CE0FBA3E0FAA3E0F9D082D08386
:10074D00D0E06B7008E965827003EA6583700890EC
:10075D00000204F07F0222900003E06402703790E3
:10076D000087E0FBA3E0FAA3E0F9C003C002C001DB
:10077D00900026E0FBA3E0FAA3E0F9D082D083D06D
:10078D00E06B7008E965827003EA6583700890007C
:09079D000304F07F03227FFF2218
:10048300900064EBF0A3EAF0A3E9F0900000E064CD
:10049300017038900064E0FBA3E0FAA3E0F9C00325
:1004A300C002C001900008E0FBA3E0FAA3E0F9D08A
:1004B30082D083D0E06B7008E965827003EA6583BC
:1004C30070099000007402F07F0022900001E06444
:1004D300017038900064E0FBA3E0FAA3E0F9C003E5
:1004E300C002C001900012E0FBA3E0FAA3E0F9D040
:1004F30082D083D0E06B7008E965827003EA65837C
:1005030070099000017402F07F0122900002E06400
:10051300017037900064E0FBA3E0FAA3E0F9C003A5
:10052300C002C00190001CE0FBA3E0FAA3E0F9D0F5
:1005330082D083D0E06B7008E965827003EA65833B
:1005430070089000027402F0FF22900003E064013F
:100553007038900064E0FBA3E0FAA3E0F9C003C0A5
:1005630002C001900026E0FBA3E0FAA3E0F9D082E9
:10057300D083D0E06B7008E965827003EA6583700D
:0D058300099000037402F07F03227FFF2225
:10000300900000E07002FF22900001E070037F0186
:1000130022900002E070037F0222900003E070034D
:050023007F03227FFFB6
:0100280022B5
:1015D900EF14600F14601114601324037015900048
:1015E90000800D90000180089000028003900003A4
:0615F9007401F07F0022E6
:1013E500EF14601514601D14602524037038E49013
:1013F5000000F0F9900008801FE4900001F0F990DA
:1014050000128014E4900002F0F990001C8009E4B9
:10141500900003F0F9900026C9F0A3F0A3E9F0A32A
:09142500E4F0A3F0A3F07F002223
:0D1741007580FF7590FF75A0FF75B0FF2249
:1016F8001217411215AF1200291216B812176612E6
:0517080010B902174EAC
:100EF200900060EBF0A3EAF0A3E9F090002CE0642C
:100F020002701E900033E0FBA3E0FAA3E0F9C002F6
:100F1200900030A3E0FAA3E0F5828A83D0021202A5
:100F22005590002DE06402701E900039E0FBA3E0B2
:100F3200FAA3E0F9C002900036A3E0FAA3E0F5823A
:100F42008A83D00212025590002EE06402701E9035
:100F5200003FE0FBA3E0FAA3E0F9C00290003CA34B
:100F6200E0FAA3E0F5828A83D00212025590002FA4
:100F7200E06402701E900045E0FBA3E0FAA3E0F9F2
:100F8200C002900042A3E0FAA3E0F5828A83D00275
:050F92001202557F0072
:010F97002237
:1015AF007E007F1C7D007B017A00792C120257E4AC
:1015BF0090002CF0A3F0A3F0A3F07BFF7A0E79F24A
:0A15CF007D107C277F01FE020E3321
:0100290022B4
:01002A0022B3
:0B11BB00900060EBF0A3EAF0A3E9F065
:1011C6007FFF1215FFEF3395E0C3648094805003D0
:1011D6007FFF22900060E0FBA3E0FAA3E0F9EFFDB9
:1011E6003395E0FC90003075F006ED120245EC7583
:1011F600F006A42583F583EBF0A3EAF0A3E9F090CB
:101206000063E0FBA3E0FAA3E0F990003375F00673
:10121600ED120245EC75F006A42583F583EBF0A3E9
:0A122600EAF0A3E9F01216257F009C
:01123000229B
:100AB30090008AEBF0A3EAF0A3E9F090002CE06049
:100AC3003690008AE0FBA3E0FAA3E0F9C003C0027A
:100AD300C001900030E0FBA3E0FAA3E0F9D082D09C
:100AE30083D0E06B7008E965827003EA6583700761
:100AF300FF12142E7F002290002DE0603790008AB1
:100B0300E0FBA3E0FAA3E0F9C003C002C001900038
:100B130036E0FBA3E0FAA3E0F9D082D083D0E06B08
:100B23007008E965827003EA658370087F01121417
:100B33002E7F012290002EE0603790008AE0FBA315
:100B4300E0FAA3E0F9C003C002C00190003CE0FB5F
:100B5300A3E0FAA3E0F9D082D083D0E06B7008E978
:100B630065827003EA658370087F0212142E7F0288
:100B73002290002FE0603790008AE0FBA3E0FAA305
:100B8300E0F9C003C002C001900042E0FBA3E0FA19
:100B9300A3E0F9D082D083D0E06B7008E96582705E
:100BA30003EA658370087F0312142E7F03227FFFFD
:010BB300221F
:10059000900060EBF0A3EAF0A3E9F090002CE06497
:1005A000017038900060E0FBA3E0FAA3E0F9C0031B
:1005B000C002C001900030E0FBA3E0FAA3E0F9D054
:1005C00082D083D0E06B7008E965827003EA6583AE
:1005D000700990002C7402F07F002290002DE064DE
:1005E000017038900060E0FBA3E0FAA3E0F9C003DB
:1005F000C002C001900036E0FBA3E0FAA3E0F9D00E
:1006000082D083D0E06B7008E965827003EA65836D
:10061000700990002D7402F07F012290002EE0649A
:10062000017037900060E0FBA3E0FAA3E0F9C0039B
:10063000C002C00190003CE0FBA3E0FAA3E0F9D0C7
:1006400082D083D0E06B7008E965827003EA65832D
:10065000700890002E7402F0FF2290002FE06401D9
:100660007038900060E0FBA3E0FAA3E0F9C003C09B
:1006700002C001900042E0FBA3E0FAA3E0F9D082BF
:10068000D083D0E06B7008E965827003EA658370FF
:0D0690000990002F7402F07F03227FFF22EB
:1007A60090008DEBF0A3EAF0A3E9F090002CE06452
:1007B60002703790008DE0FBA3E0FAA3E0F9C003D6
:1007C600C002C001900030E0FBA3E0FAA3E0F9D03C
:1007D60082D083D0E06B7008E965827003EA658396
:1007E600700890002C04F07F002290002DE0640237
:1007F600703690008DE0FBA3E0FAA3E0F9C003C0D9
:1008060002C001900036E0FBA3E0FAA3E0F9D08233
:10081600D083D0E06B7008E965827003EA65837067
:100826000790002D04F0FF2290002EE0640270373E
:1008360090008DE0FBA3E0FAA3E0F9C003C002C07C
:100846000190003CE0FBA3E0FAA3E0F9D082D0835C
:10085600D0E06B7008E965827003EA6583700890E2
:10086600002E04F07F022290002FE0640270379081
:10087600008DE0FBA3E0FAA3E0F9C003C002C001CB
:10088600900042E0FBA3E0FAA3E0F9D082D083D047
:10089600E06B7008E965827003EA65837008900072
:0908A6002F04F07F03227FFF22E2
:1015FF0090002CE07002FF2290002DE070037F011D
:10160F002290002EE070037F022290002FE07003E3
:05161F007F03227FFFA4
:0116240022A3
:10162500EF14600F146011146013240370159000FB
:101635002C800D90002D800890002E800390002FA7
:061645007401F07F002299
:10142E00EF14601514601D14602524037038E490C9
:10143E00002CF0F9900030801FE490002DF0F99010
:10144E0000368014E490002EF0F990003C8009E400
:10145E0090002FF0F9900042C9F0A3F0A3E9F0A399
:09146E00E4F0A3F0A3F07F0022DA
:02171D00C10009
:0E173200900065EBF0A3EAF0A3E9F0E4FEFFFF
:011740002286
:100E3300900060ECF0A3EDF0A3EBF0A3EAF0A3E9DC
:100E4300F0EE6003020EF1EF14600B046003020E78
:100E5300F175C8098003E4F5C8900060E0FEA3E0E3
:100E6300FBE4C39BFFE49EFE74019400FDE4940045
:100E7300FCE4FB7A01F9F81214BD900075EFF090D1
:100E83000060E0FEA3E0FBE4C39BFFE49EFE74016D
:100E93009400FDE49400FCE4FB7A01F9F81214BD1C
:100EA300900076EBF0900062E0FBA3E0FAA3E04A47
:100EB3004B701090007274FFF0A37417F0A3743298
:100EC300F08015900062E0F9A3E0FAA3E0900072CD
:100ED300C9F0A3EAF0A3E9F0900075E0F5CBA3E035
:0F0EE300F5CA85CBCD85CACCD2AFD2CAD2AD224B
:100D700090006DECF0A3EDF0A3EBF0A3EAF0A3E993
:100D8000F0C2CAC2ADEE6003020E32EF14600B0473
:100D90006003020E3275C8098003E4F5C890006D47
:100DA000E0FEA3E0FBE4C39BFFE49EFE740194001D
:100DB000FDE49400FCE4FB7A01F9F81214BD900004
:100DC00075EFF090006DE0FEA3E0FBE4C39BFFE451
:100DD0009EFE74019400FDE49400FCE4FB7A01F9AA
:100DE000F81214BD900076EBF090006FE0FBA3E0EA
:100DF000FAA3E04A4B701090007274FFF0A37417CE
:100E0000F0A37432F0801590006FE0F9A3E0FAA32C
:100E1000E0900072C9F0A3EAF0A3E9F0900075E059
:100E2000F5CBA3E0F5CA85CBCD85CACCC2CAC2AD8D
:030E3000D2AF221C
:05177E00D2ADD2CA2229
:05178300C2CAC2AD2244
:03178800C2CA22B0
:03178B00D2CA229D
:03002B000212F4CA
:1012F400C0E0C0F0C083C082C0D075D000C000C0C0
:1013040001C002C003C004C005C006C007C2CF7B31
:10131400007A007900C002900072A3E0FAA3E0F51D
:10132400828A83D002120255D007D006D005D00499
:10133400D003D002D001D000D0D0D082D083D0F05E
:03134400D0E032C4
:10002E00EF14607B14700302011514700302017B40
:10003E00240360030201DBEB1460191460321460B8
:10004E004B240360030201DBA805E4088002C333DE
:10005E00D8FC8043A805E4088002C333D8FCF5938E
:10006E00A8057401088002C333D8FCF5940201DBA5
:10007E00A8057401088002C333D8FCF593A805E4E3
:10008E00088002C333D8FCF5940201DBA805740185
:10009E00088002C333D8FCFFF5938F940201DBEB8B
:1000AE0014601914603214604B240360030201DBE8
:1000BE00A805E4088002C333D8FC8043A805E408F1
:1000CE008002C333D8FCF591A8057401088002C3E1
:1000DE0033D8FCF5920201DBA8057401088002C337
:1000EE0033D8FCF591A805E4088002C333D8FCF59B
:1000FE00920201DBA8057401088002C333D8FCFF0D
:10010E00F5918F920201DBEB1460191460321460CA
:10011E004A240360030201DBA805E4088002C3330E
:10012E00D8FC8042A805E4088002C333D8FCF595BC
:10013E00A8057401088002C333D8FCF5960201DBD2
:10014E00A8057401088002C333D8FCF595A805E410
:10015E00088002C333D8FCF5968072A80574010896
:10016E008002C333D8FCFFF5958F968060EB146048
:10017E001614602E14604624037052A805E40880FD
:10018E0002C333D8FC8041A805E4088002C333D8EB
:10019E00FCF5B1A8057401088002C333D8FCF5B292
:1001AE00802BA8057401088002C333D8FCF5B1A8D2
:1001BE0005E4088002C333D8FCF5B28010A805749C
:1001CE0001088002C333D8FCFFF5B18FB27F002245
:10139800EF1460191460251460312403703CA8050B
:1013A8007401088002C333D8FC4280802DA80574DC
:1013B80001088002C333D8FC4290801EA80574013E
:1013C800088002C333D8FC42A0800FAF05A8077479
:0D13D80001088002C333D8FC42B07F002220
:10134700EF14601A14602714603424037040A80552
:101357007401088002C333D8FCF452808030A8059A
:101367007401088002C333D8FCF452908020A8058A
:101377007401088002C333D8FCF452A08010AF0573
:10138700A8077401088002C333D8FCF452B07F0069
:011397002233
:10129D007EFFEF14601B1460291460372403704423
:1012AD00AE80A8057401088002C333D8FC5EFE80B1
:1012BD0033AE90A8057401088002C333D8FC5EFEDE
:1012CD008022AEA0A8057401088002C333D8FC5E4D
:1012DD00FE8011AEB0AF05A8077401088002C333BC
:0612ED00D8FC5EFEAF0616
:0112F30022D8
:1008AF00900060EBF0A3EAF0A3E9F0900048E06459
:1008BF00027035900050E004F090004FE0FFA3E08D
:1008CF00B5070D90004DE0FFA3E0FD121347801810
:1008DF00900050E06464701090004DE0FFA3E0FDC5
:1008EF00121398E4900050F0900049E064027035C4
:1008FF00900055E004F0900054E0FFA3E0B5070D21
:10090F00900052E0FFA3E0FD1213478018900055AE
:10091F00E064647010900052E0FFA3E0FD121398A2
:10092F00E4900055F090004AE06402703590005A50
:10093F00E004F0900059E0FFA3E0B5070D900057D9
:10094F00E0FFA3E0FD121347801890005AE06464A3
:10095F007010900057E0FFA3E0FD121398E4900091
:10096F005AF090004BE06402703590005FE004F0A5
:10097F0090005EE0FFA3E0B5070D90005CE0FFA3E1
:10098F00E0FD121347801890005FE06464701090D0
:10099F00005CE0FFA3E0FD121398E490005FF0E429
:0209AF00FEFF49
:0109B1002223
:1010B9007E007F187D007B017A007948120257E48F
:1010C900900048F0A3F0A3F0A3F0A374FFF0E4901C
:1010D900004EF090004DF090004F7432F0E4A3F010
:1010E900A374FFF0E4900053F0900052F090005484
:1010F9007432F0E4A3F0A374FFF0E4900058F09088
:101109000057F09000597432F0E4A3F0A374FFF093
:10111900E490005DF090005CF090005E7432F0E4C1
:10112900A3F0F9900063C9F0A3F0A3E9F07BFF7A7B
:091139000879AF1211BB7F0022FE
:0C174E007BFF7A0879AF1205907F002223
:0C175A007BFF7A0879AF1207A67F0022FF
:0E0BB400900064EBF0A3EAF0A3E9F0A3EDF0EB
:100BC20090006A74FFF012164B90006AEFF0FD334A
:100BD20095E0FCC36480948050037FFF2290006AFA
:100BE200E0FF90004C75F005ED120245EC75F00542
:100BF200A42583F583EFF0900067E0FF90004D7528
:100C0200F005ED120245EC75F005A42583F583EF9E
:100C1200F0900068E0FF90004E75F005ED1202457D
:100C2200EC75F005A42583F583EFF0900069E0FFF1
:100C320090004F75F005ED120245EC75F005A42504
:100C420083F583EFF090005075F005ED120245EC4C
:100C520075F005A42583F583E4F090004D75F00549
:100C6200ED120245EC75F005A42583F583E0FF90B3
:100C7200004E75F005ED120245EC75F005A42583D2
:100C8200F583E0FD12139890006AE0FF900064E0A3
:100C9200FBA3E0FAA3E0F9EF1201DE90006AE0FFA5
:080CA20012167190006AE0FFD8
:010CAA002227
:10150100EF14601414601B1460222403702B9000EC
:1015110048E06028E4FF801C900049E0601E7F01E4
:10152100801290004AE060147F02800890004BE036
:0F153100600A7F0312147780037FFF227F00225E
:10154000EF14601414601B1460222403702B9000AD
:1015500048E064017026801C900049E06401701C22
:10156000801290004AE064017012800890004BE005
:0F157000640170087402F080037FFF227F002265
:10123100EF14601E14602F14604024037058900056
:1012410048E06402705304F0E4900050F090004DC7
:10125100803A900049E06402703F04F0E490005548
:10126100F0900052802690004AE06402702B04F056
:10127100E490005AF0900057801290004BE0640215
:10128100701704F0E490005FF090005CE0FFA3E0D1
:0C129100FD12139880037FFF227F0022D3
:10114200900067EDF0EF14602014603314604624C1
:10115200037060900048E0605D900067E090004F8F
:10116200F0E4A3F090004D8040900049E060479089
:101172000067E0900054F0E4A3F0900052802A90BF
:10118200004AE06031900067E0900059F0E4A3F07B
:10119200900057801490004BE0601B900067E09035
:1011A200005EF0E4A3F090005CE0FFA3E0FD121308
:0911B2009880037FFF227F0022D8
:10164B00900048E07002FF22900049E070037F0198
:10165B002290004AE070037F022290004BE070035F
:05166B007F03227FFF58
:011670002257
:10167100EF14600F146011146013240370159000AF
:1016810048800D900049800890004A800390004BEB
:061691007401F07F00224D
:10147700EF14601414601B14602224037035E49089
:101487000048F090004C801CE4900049F090005117
:101497008012E490004AF09000568008E490004BD8
:1014A700F090005B74FFF0E4A3F0A3F0A37432F0B4
:0614B700E4A3F07F002217
:061778001216F8020F98A2
:0300000002102DBE
:0C102D00787FE4F6D8FD75812002107475
:10103900021778E493A3F8E493A34003F68001F23E
:1010490008DFF48029E493A3F85407240CC8C333B8
:10105900C4540F4420C8834004F456800146F6DF87
:10106900E4800B010204081020408090170DE47EF3
:10107900019360BCA3FF543F30E509541FFEE4937C
:10108900A360010ECF54C025E060A840B8E493A343
:10109900FAE493A3F8E493A3C8C582C8CAC583CA6E
:1010A900F0A3C8C582C8CAC583CADFE9DEE780BE26
:01171F0000C9
:1001DE00BB010689828A83F0225002F722BBFE0100
:0201EE00F322FA
:1001F000BC000BBE0029EF8DF084FFADF022E4CCF3
:10020000F875F008EF2FFFEE33FEEC33FCEE9DECBB
:10021000984005FCEE9DFE0FD5F0E9E4CEFD22ED01
:10022000F8F5F0EE8420D21CFEADF075F008EF2F4B
:10023000FFED33FD4007985006D5F0F222C398FD3C
:050240000FD5F0EA22D9
:1014BD00C2D5E830E70FB2D5E4C39BFBE49AFAE45A
:1014CD0099F9E498F8EC30E717B2D51214F312023B
:1014DD00BFE4C39BFBE49AFAE499F9E498F880031E
:1014ED001202BF30D50DE4C39FFFE49EFEE49DFDC7
:0414FD00E49CFC224D
:0C024500A42582F582E5F03583F58322C4
:060251008A838982E47338
:10025700EF4E6012EF60010EEDBB010B89828A83BE
:10026700F0A3DFFCDEFA2289F05007F709DFFCA9CB
:0C027700F022BBFEFCF309DFFCA9F02222
:1002830075F008758200EF2FFFEE33FECD33CDCC32
:1002930033CCC58233C5829BED9AEC99E5829840B5
:1002A3000CF582EE9BFEED9AFDEC99FC0FD5F0D692
:1002B300E4CEFBE4CDFAE4CCF9A88222B800C1B9BC
:1002C3000059BA002DEC8BF084CFCECDFCE5F0CBFA
:1002D300F97818EF2FFFEE33FEED33FDEC33FCEB33
:1002E30033FB10D703994004EB99FB0FD8E5E4F9EE
:1002F300FA227818EF2FFFEE33FEED33FDEC33FCDB
:10030300C933C910D7059BE99A4007EC9BFCE99ACE
:10031300F90FD8E0E4C9FAE4CCFB2275F010EF2F13
:10032300FFEE33FEED33FDCC33CCC833C810D70713
:100333009BEC9AE899400AED9BFDEC9AFCE899F84E
:0E0343000FD5F0DAE4CDFBE4CCFAE4C8F922E1
:00000001FF
